{"abi":[{"type":"constructor","inputs":[{"name":"verifierAddress","type":"address","internalType":"address"}],"stateMutability":"nonpayable"},{"type":"function","name":"approve","inputs":[{"name":"to","type":"address","internalType":"address"},{"name":"tokenId","type":"uint256","internalType":"uint256"}],"outputs":[],"stateMutability":"nonpayable"},{"type":"function","name":"balanceOf","inputs":[{"name":"owner","type":"address","internalType":"address"}],"outputs":[{"name":"","type":"uint256","internalType":"uint256"}],"stateMutability":"view"},{"type":"function","name":"getApproved","inputs":[{"name":"tokenId","type":"uint256","internalType":"uint256"}],"outputs":[{"name":"","type":"address","internalType":"address"}],"stateMutability":"view"},{"type":"function","name":"hasMinted","inputs":[{"name":"","type":"address","internalType":"address"},{"name":"","type":"uint256","internalType":"uint256"}],"outputs":[{"name":"","type":"bool","internalType":"bool"}],"stateMutability":"view"},{"type":"function","name":"isApprovedForAll","inputs":[{"name":"owner","type":"address","internalType":"address"},{"name":"operator","type":"address","internalType":"address"}],"outputs":[{"name":"","type":"bool","internalType":"bool"}],"stateMutability":"view"},{"type":"function","name":"mintWithProof","inputs":[{"name":"roadmapId","type":"uint256","internalType":"uint256"},{"name":"a","type":"uint256[2]","internalType":"uint256[2]"},{"name":"b","type":"uint256[2][2]","internalType":"uint256[2][2]"},{"name":"c","type":"uint256[2]","internalType":"uint256[2]"},{"name":"tokenURI","type":"string","internalType":"string"}],"outputs":[{"name":"","type":"uint256","internalType":"uint256"}],"stateMutability":"nonpayable"},{"type":"function","name":"name","inputs":[],"outputs":[{"name":"","type":"string","internalType":"string"}],"stateMutability":"view"},{"type":"function","name":"ownerOf","inputs":[{"name":"tokenId","type":"uint256","internalType":"uint256"}],"outputs":[{"name":"","type":"address","internalType":"address"}],"stateMutability":"view"},{"type":"function","name":"safeTransferFrom","inputs":[{"name":"from","type":"address","internalType":"address"},{"name":"to","type":"address","internalType":"address"},{"name":"tokenId","type":"uint256","internalType":"uint256"}],"outputs":[],"stateMutability":"nonpayable"},{"type":"function","name":"safeTransferFrom","inputs":[{"name":"from","type":"address","internalType":"address"},{"name":"to","type":"address","internalType":"address"},{"name":"tokenId","type":"uint256","internalType":"uint256"},{"name":"data","type":"bytes","internalType":"bytes"}],"outputs":[],"stateMutability":"nonpayable"},{"type":"function","name":"setApprovalForAll","inputs":[{"name":"operator","type":"address","internalType":"address"},{"name":"approved","type":"bool","internalType":"bool"}],"outputs":[],"stateMutability":"nonpayable"},{"type":"function","name":"supportsInterface","inputs":[{"name":"interfaceId","type":"bytes4","internalType":"bytes4"}],"outputs":[{"name":"","type":"bool","internalType":"bool"}],"stateMutability":"view"},{"type":"function","name":"symbol","inputs":[],"outputs":[{"name":"","type":"string","internalType":"string"}],"stateMutability":"view"},{"type":"function","name":"tokenURI","inputs":[{"name":"tokenId","type":"uint256","internalType":"uint256"}],"outputs":[{"name":"","type":"string","internalType":"string"}],"stateMutability":"view"},{"type":"function","name":"transferFrom","inputs":[{"name":"from","type":"address","internalType":"address"},{"name":"to","type":"address","internalType":"address"},{"name":"tokenId","type":"uint256","internalType":"uint256"}],"outputs":[],"stateMutability":"nonpayable"},{"type":"function","name":"updateVerifier","inputs":[{"name":"newVerifierAddress","type":"address","internalType":"address"}],"outputs":[],"stateMutability":"nonpayable"},{"type":"function","name":"verifier","inputs":[],"outputs":[{"name":"","type":"address","internalType":"contract IZKVerifier"}],"stateMutability":"view"},{"type":"event","name":"Approval","inputs":[{"name":"owner","type":"address","indexed":true,"internalType":"address"},{"name":"approved","type":"address","indexed":true,"internalType":"address"},{"name":"tokenId","type":"uint256","indexed":true,"internalType":"uint256"}],"anonymous":false},{"type":"event","name":"ApprovalForAll","inputs":[{"name":"owner","type":"address","indexed":true,"internalType":"address"},{"name":"operator","type":"address","indexed":true,"internalType":"address"},{"name":"approved","type":"bool","indexed":false,"internalType":"bool"}],"anonymous":false},{"type":"event","name":"BatchMetadataUpdate","inputs":[{"name":"_fromTokenId","type":"uint256","indexed":false,"internalType":"uint256"},{"name":"_toTokenId","type":"uint256","indexed":false,"internalType":"uint256"}],"anonymous":false},{"type":"event","name":"MetadataUpdate","inputs":[{"name":"_tokenId","type":"uint256","indexed":false,"internalType":"uint256"}],"anonymous":false},{"type":"event","name":"NFTMinted","inputs":[{"name":"to","type":"address","indexed":true,"internalType":"address"},{"name":"roadmapId","type":"uint256","indexed":true,"internalType":"uint256"},{"name":"tokenId","type":"uint256","indexed":false,"internalType":"uint256"}],"anonymous":false},{"type":"event","name":"Transfer","inputs":[{"name":"from","type":"address","indexed":true,"internalType":"address"},{"name":"to","type":"address","indexed":true,"internalType":"address"},{"name":"tokenId","type":"uint256","indexed":true,"internalType":"uint256"}],"anonymous":false},{"type":"error","name":"ERC721IncorrectOwner","inputs":[{"name":"sender","type":"address","internalType":"address"},{"name":"tokenId","type":"uint256","internalType":"uint256"},{"name":"owner","type":"address","internalType":"address"}]},{"type":"error","name":"ERC721InsufficientApproval","inputs":[{"name":"operator","type":"address","internalType":"address"},{"name":"tokenId","type":"uint256","internalType":"uint256"}]},{"type":"error","name":"ERC721InvalidApprover","inputs":[{"name":"approver","type":"address","internalType":"address"}]},{"type":"error","name":"ERC721InvalidOperator","inputs":[{"name":"operator","type":"address","internalType":"address"}]},{"type":"error","name":"ERC721InvalidOwner","inputs":[{"name":"owner","type":"address","internalType":"address"}]},{"type":"error","name":"ERC721InvalidReceiver","inputs":[{"name":"receiver","type":"address","internalType":"address"}]},{"type":"error","name":"ERC721InvalidSender","inputs":[{"name":"sender","type":"address","internalType":"address"}]},{"type":"error","name":"ERC721NonexistentToken","inputs":[{"name":"tokenId","type":"uint256","internalType":"uint256"}]}],"bytecode":{"object":"0x608060405234801561000f575f5ffd5b50604051612fcc380380612fcc833981810160405281019061003191906101d0565b6040518060400160405280601681526020017f526f61646d617020436f6d706c6574696f6e204e4654000000000000000000008152506040518060400160405280600581526020017f524d4e4654000000000000000000000000000000000000000000000000000000815250815f90816100ab9190610438565b5080600190816100bb9190610438565b5050505f73ffffffffffffffffffffffffffffffffffffffff168173ffffffffffffffffffffffffffffffffffffffff160361012c576040517f08c379a000000000000000000000000000000000000000000000000000000000815260040161012390610561565b60405180910390fd5b8060085f6101000a81548173ffffffffffffffffffffffffffffffffffffffff021916908373ffffffffffffffffffffffffffffffffffffffff1602179055505061057f565b5f5ffd5b5f73ffffffffffffffffffffffffffffffffffffffff82169050919050565b5f61019f82610176565b9050919050565b6101af81610195565b81146101b9575f5ffd5b50565b5f815190506101ca816101a6565b92915050565b5f602082840312156101e5576101e4610172565b5b5f6101f2848285016101bc565b91505092915050565b5f81519050919050565b7f4e487b71000000000000000000000000000000000000000000000000000000005f52604160045260245ffd5b7f4e487b71000000000000000000000000000000000000000000000000000000005f52602260045260245ffd5b5f600282049050600182168061027657607f821691505b60208210810361028957610288610232565b5b50919050565b5f819050815f5260205f209050919050565b5f6020601f8301049050919050565b5f82821b905092915050565b5f600883026102eb7fffffffffffffffffffffffffffffffffffffffffffffffffffffffffffffffff826102b0565b6102f586836102b0565b95508019841693508086168417925050509392505050565b5f819050919050565b5f819050919050565b5f61033961033461032f8461030d565b610316565b61030d565b9050919050565b5f819050919050565b6103528361031f565b61036661035e82610340565b8484546102bc565b825550505050565b5f5f905090565b61037d61036e565b610388818484610349565b505050565b5b818110156103ab576103a05f82610375565b60018101905061038e565b5050565b601f8211156103f0576103c18161028f565b6103ca846102a1565b810160208510156103d9578190505b6103ed6103e5856102a1565b83018261038d565b50505b505050565b5f82821c905092915050565b5f6104105f19846008026103f5565b1980831691505092915050565b5f6104288383610401565b9150826002028217905092915050565b610441826101fb565b67ffffffffffffffff81111561045a57610459610205565b5b610464825461025f565b61046f8282856103af565b5f60209050601f8311600181146104a0575f841561048e578287015190505b610498858261041d565b8655506104ff565b601f1984166104ae8661028f565b5f5b828110156104d5578489015182556001820191506020850194506020810190506104b0565b868310156104f257848901516104ee601f891682610401565b8355505b6001600288020188555050505b505050505050565b5f82825260208201905092915050565b7f496e76616c6964207665726966696572206164647265737300000000000000005f82015250565b5f61054b601883610507565b915061055682610517565b602082019050919050565b5f6020820190508181035f8301526105788161053f565b9050919050565b612a408061058c5f395ff3fe608060405234801561000f575f5ffd5b5060043610610109575f3560e01c80636f09cbed116100a0578063a22cb4651161006f578063a22cb465146102c7578063b88d4fde146102e3578063c87b56dd146102ff578063e985e9c51461032f578063f8f1147d1461035f57610109565b80636f09cbed1461022d57806370a082311461025d57806395d89b411461028d57806397fc007c146102ab57610109565b806323b872dd116100dc57806323b872dd146101a75780632b7ac3f3146101c357806342842e0e146101e15780636352211e146101fd57610109565b806301ffc9a71461010d57806306fdde031461013d578063081812fc1461015b578063095ea7b31461018b575b5f5ffd5b61012760048036038101906101229190611ba6565b61038f565b6040516101349190611beb565b60405180910390f35b6101456103ef565b6040516101529190611c74565b60405180910390f35b61017560048036038101906101709190611cc7565b61047e565b6040516101829190611d31565b60405180910390f35b6101a560048036038101906101a09190611d74565b610499565b005b6101c160048036038101906101bc9190611db2565b6104af565b005b6101cb6105ae565b6040516101d89190611e5d565b60405180910390f35b6101fb60048036038101906101f69190611db2565b6105d3565b005b61021760048036038101906102129190611cc7565b6105f2565b6040516102249190611d31565b60405180910390f35b61024760048036038101906102429190611fe8565b610603565b604051610254919061208c565b60405180910390f35b610277600480360381019061027291906120a5565b61086a565b604051610284919061208c565b60405180910390f35b610295610920565b6040516102a29190611c74565b60405180910390f35b6102c560048036038101906102c091906120a5565b6109b0565b005b6102e160048036038101906102dc91906120fa565b610a61565b005b6102fd60048036038101906102f891906121d6565b610a77565b005b61031960048036038101906103149190611cc7565b610a9c565b6040516103269190611c74565b60405180910390f35b61034960048036038101906103449190612256565b610ba7565b6040516103569190611beb565b60405180910390f35b61037960048036038101906103749190611d74565b610c35565b6040516103869190611beb565b60405180910390f35b5f634906490660e01b7bffffffffffffffffffffffffffffffffffffffffffffffffffffffff1916827bffffffffffffffffffffffffffffffffffffffffffffffffffffffff191614806103e857506103e782610c5f565b5b9050919050565b60605f80546103fd906122c1565b80601f0160208091040260200160405190810160405280929190818152602001828054610429906122c1565b80156104745780601f1061044b57610100808354040283529160200191610474565b820191905f5260205f20905b81548152906001019060200180831161045757829003601f168201915b5050505050905090565b5f61048882610d40565b5061049282610dc6565b9050919050565b6104ab82826104a6610dff565b610e06565b5050565b5f73ffffffffffffffffffffffffffffffffffffffff168273ffffffffffffffffffffffffffffffffffffffff160361051f575f6040517f64a0ae920000000000000000000000000000000000000000000000000000000081526004016105169190611d31565b60405180910390fd5b5f610532838361052d610dff565b610e18565b90508373ffffffffffffffffffffffffffffffffffffffff168173ffffffffffffffffffffffffffffffffffffffff16146105a8578382826040517f64283d7b00000000000000000000000000000000000000000000000000000000815260040161059f939291906122f1565b60405180910390fd5b50505050565b60085f9054906101000a900473ffffffffffffffffffffffffffffffffffffffff1681565b6105ed83838360405180602001604052805f815250610a77565b505050565b5f6105fc82610d40565b9050919050565b5f60095f3373ffffffffffffffffffffffffffffffffffffffff1673ffffffffffffffffffffffffffffffffffffffff1681526020019081526020015f205f8781526020019081526020015f205f9054906101000a900460ff161561069d576040517f08c379a000000000000000000000000000000000000000000000000000000000815260040161069490612370565b60405180910390fd5b60085f9054906101000a900473ffffffffffffffffffffffffffffffffffffffff1673ffffffffffffffffffffffffffffffffffffffff16636668a9fa8686866040518463ffffffff1660e01b81526004016106fb9392919061245f565b602060405180830381865afa158015610716573d5f5f3e3d5ffd5b505050506040513d601f19601f8201168201806040525081019061073a91906124a9565b610779576040517f08c379a00000000000000000000000000000000000000000000000000000000081526004016107709061251e565b60405180910390fd5b60075f81548092919061078b90612569565b91905055505f60075490506107a03382611023565b6107aa8184611040565b600160095f3373ffffffffffffffffffffffffffffffffffffffff1673ffffffffffffffffffffffffffffffffffffffff1681526020019081526020015f205f8981526020019081526020015f205f6101000a81548160ff021916908315150217905550863373ffffffffffffffffffffffffffffffffffffffff167f3a8a89b59a31c39a36febecb987e0657ab7b7c73b60ebacb44dcb9886c2d5c8a83604051610855919061208c565b60405180910390a38091505095945050505050565b5f5f73ffffffffffffffffffffffffffffffffffffffff168273ffffffffffffffffffffffffffffffffffffffff16036108db575f6040517f89c62b640000000000000000000000000000000000000000000000000000000081526004016108d29190611d31565b60405180910390fd5b60035f8373ffffffffffffffffffffffffffffffffffffffff1673ffffffffffffffffffffffffffffffffffffffff1681526020019081526020015f20549050919050565b60606001805461092f906122c1565b80601f016020809104026020016040519081016040528092919081815260200182805461095b906122c1565b80156109a65780601f1061097d576101008083540402835291602001916109a6565b820191905f5260205f20905b81548152906001019060200180831161098957829003601f168201915b5050505050905090565b5f73ffffffffffffffffffffffffffffffffffffffff168173ffffffffffffffffffffffffffffffffffffffff1603610a1e576040517f08c379a0000000000000000000000000000000000000000000000000000000008152600401610a15906125fa565b60405180910390fd5b8060085f6101000a81548173ffffffffffffffffffffffffffffffffffffffff021916908373ffffffffffffffffffffffffffffffffffffffff16021790555050565b610a73610a6c610dff565b838361109a565b5050565b610a828484846104af565b610a96610a8d610dff565b85858585611203565b50505050565b6060610aa782610d40565b505f60065f8481526020019081526020015f208054610ac5906122c1565b80601f0160208091040260200160405190810160405280929190818152602001828054610af1906122c1565b8015610b3c5780601f10610b1357610100808354040283529160200191610b3c565b820191905f5260205f20905b815481529060010190602001808311610b1f57829003601f168201915b505050505090505f610b4c6113af565b90505f815103610b60578192505050610ba2565b5f82511115610b94578082604051602001610b7c929190612652565b60405160208183030381529060405292505050610ba2565b610b9d846113c5565b925050505b919050565b5f60055f8473ffffffffffffffffffffffffffffffffffffffff1673ffffffffffffffffffffffffffffffffffffffff1681526020019081526020015f205f8373ffffffffffffffffffffffffffffffffffffffff1673ffffffffffffffffffffffffffffffffffffffff1681526020019081526020015f205f9054906101000a900460ff16905092915050565b6009602052815f5260405f20602052805f5260405f205f915091509054906101000a900460ff1681565b5f7f80ac58cd000000000000000000000000000000000000000000000000000000007bffffffffffffffffffffffffffffffffffffffffffffffffffffffff1916827bffffffffffffffffffffffffffffffffffffffffffffffffffffffff19161480610d2957507f5b5e139f000000000000000000000000000000000000000000000000000000007bffffffffffffffffffffffffffffffffffffffffffffffffffffffff1916827bffffffffffffffffffffffffffffffffffffffffffffffffffffffff1916145b80610d395750610d388261142b565b5b9050919050565b5f5f610d4b83611494565b90505f73ffffffffffffffffffffffffffffffffffffffff168173ffffffffffffffffffffffffffffffffffffffff1603610dbd57826040517f7e273289000000000000000000000000000000000000000000000000000000008152600401610db4919061208c565b60405180910390fd5b80915050919050565b5f60045f8381526020019081526020015f205f9054906101000a900473ffffffffffffffffffffffffffffffffffffffff169050919050565b5f33905090565b610e1383838360016114cd565b505050565b5f5f610e2384611494565b90505f73ffffffffffffffffffffffffffffffffffffffff168373ffffffffffffffffffffffffffffffffffffffff1614610e6457610e6381848661168c565b5b5f73ffffffffffffffffffffffffffffffffffffffff168173ffffffffffffffffffffffffffffffffffffffff1614610eef57610ea35f855f5f6114cd565b600160035f8373ffffffffffffffffffffffffffffffffffffffff1673ffffffffffffffffffffffffffffffffffffffff1681526020019081526020015f205f82825403925050819055505b5f73ffffffffffffffffffffffffffffffffffffffff168573ffffffffffffffffffffffffffffffffffffffff1614610f6e57600160035f8773ffffffffffffffffffffffffffffffffffffffff1673ffffffffffffffffffffffffffffffffffffffff1681526020019081526020015f205f82825401925050819055505b8460025f8681526020019081526020015f205f6101000a81548173ffffffffffffffffffffffffffffffffffffffff021916908373ffffffffffffffffffffffffffffffffffffffff160217905550838573ffffffffffffffffffffffffffffffffffffffff168273ffffffffffffffffffffffffffffffffffffffff167fddf252ad1be2c89b69c2b068fc378daa952ba7f163c4a11628f55a4df523b3ef60405160405180910390a4809150509392505050565b61103c828260405180602001604052805f81525061174f565b5050565b8060065f8481526020019081526020015f20908161105e919061280c565b507ff8e1a15aba9398e019f0b49df1a4fde98ee17ae345cb5f6b5e2c27f5033e8ce78260405161108e919061208c565b60405180910390a15050565b5f73ffffffffffffffffffffffffffffffffffffffff168273ffffffffffffffffffffffffffffffffffffffff160361110a57816040517f5b08ba180000000000000000000000000000000000000000000000000000000081526004016111019190611d31565b60405180910390fd5b8060055f8573ffffffffffffffffffffffffffffffffffffffff1673ffffffffffffffffffffffffffffffffffffffff1681526020019081526020015f205f8473ffffffffffffffffffffffffffffffffffffffff1673ffffffffffffffffffffffffffffffffffffffff1681526020019081526020015f205f6101000a81548160ff0219169083151502179055508173ffffffffffffffffffffffffffffffffffffffff168373ffffffffffffffffffffffffffffffffffffffff167f17307eab39ab6107e8899845ad3d59bd9653f200f220920489ca2b5937696c31836040516111f69190611beb565b60405180910390a3505050565b5f8373ffffffffffffffffffffffffffffffffffffffff163b11156113a8578273ffffffffffffffffffffffffffffffffffffffff1663150b7a02868685856040518563ffffffff1660e01b8152600401611261949392919061292d565b6020604051808303815f875af192505050801561129c57506040513d601f19601f82011682018060405250810190611299919061298b565b60015b61131d573d805f81146112ca576040519150601f19603f3d011682016040523d82523d5f602084013e6112cf565b606091505b505f81510361131557836040517f64a0ae9200000000000000000000000000000000000000000000000000000000815260040161130c9190611d31565b60405180910390fd5b805181602001fd5b63150b7a0260e01b7bffffffffffffffffffffffffffffffffffffffffffffffffffffffff1916817bffffffffffffffffffffffffffffffffffffffffffffffffffffffff1916146113a657836040517f64a0ae9200000000000000000000000000000000000000000000000000000000815260040161139d9190611d31565b60405180910390fd5b505b5050505050565b606060405180602001604052805f815250905090565b60606113d082610d40565b505f6113da6113af565b90505f8151116113f85760405180602001604052805f815250611423565b8061140284611772565b604051602001611413929190612652565b6040516020818303038152906040525b915050919050565b5f7f01ffc9a7000000000000000000000000000000000000000000000000000000007bffffffffffffffffffffffffffffffffffffffffffffffffffffffff1916827bffffffffffffffffffffffffffffffffffffffffffffffffffffffff1916149050919050565b5f60025f8381526020019081526020015f205f9054906101000a900473ffffffffffffffffffffffffffffffffffffffff169050919050565b808061150557505f73ffffffffffffffffffffffffffffffffffffffff168273ffffffffffffffffffffffffffffffffffffffff1614155b15611637575f61151484610d40565b90505f73ffffffffffffffffffffffffffffffffffffffff168373ffffffffffffffffffffffffffffffffffffffff161415801561157e57508273ffffffffffffffffffffffffffffffffffffffff168173ffffffffffffffffffffffffffffffffffffffff1614155b8015611591575061158f8184610ba7565b155b156115d357826040517fa9fbf51f0000000000000000000000000000000000000000000000000000000081526004016115ca9190611d31565b60405180910390fd5b811561163557838573ffffffffffffffffffffffffffffffffffffffff168273ffffffffffffffffffffffffffffffffffffffff167f8c5be1e5ebec7d5bd14f71427d1e84f3dd0314c0f7b2291e5b200ac8c7c3b92560405160405180910390a45b505b8360045f8581526020019081526020015f205f6101000a81548173ffffffffffffffffffffffffffffffffffffffff021916908373ffffffffffffffffffffffffffffffffffffffff16021790555050505050565b61169783838361183c565b61174a575f73ffffffffffffffffffffffffffffffffffffffff168373ffffffffffffffffffffffffffffffffffffffff160361170b57806040517f7e273289000000000000000000000000000000000000000000000000000000008152600401611702919061208c565b60405180910390fd5b81816040517f177e802f0000000000000000000000000000000000000000000000000000000081526004016117419291906129b6565b60405180910390fd5b505050565b61175983836118fc565b61176d611764610dff565b5f858585611203565b505050565b60605f6001611780846119ef565b0190505f8167ffffffffffffffff81111561179e5761179d611ec4565b5b6040519080825280601f01601f1916602001820160405280156117d05781602001600182028036833780820191505090505b5090505f82602001820190505b600115611831578080600190039150507f3031323334353637383961626364656600000000000000000000000000000000600a86061a8153600a8581611826576118256129dd565b5b0494505f85036117dd575b819350505050919050565b5f5f73ffffffffffffffffffffffffffffffffffffffff168373ffffffffffffffffffffffffffffffffffffffff16141580156118f357508273ffffffffffffffffffffffffffffffffffffffff168473ffffffffffffffffffffffffffffffffffffffff1614806118b457506118b38484610ba7565b5b806118f257508273ffffffffffffffffffffffffffffffffffffffff166118da83610dc6565b73ffffffffffffffffffffffffffffffffffffffff16145b5b90509392505050565b5f73ffffffffffffffffffffffffffffffffffffffff168273ffffffffffffffffffffffffffffffffffffffff160361196c575f6040517f64a0ae920000000000000000000000000000000000000000000000000000000081526004016119639190611d31565b60405180910390fd5b5f61197883835f610e18565b90505f73ffffffffffffffffffffffffffffffffffffffff168173ffffffffffffffffffffffffffffffffffffffff16146119ea575f6040517f73c6ac6e0000000000000000000000000000000000000000000000000000000081526004016119e19190611d31565b60405180910390fd5b505050565b5f5f5f90507a184f03e93ff9f4daa797ed6e38ed64bf6a1f0100000000000000008310611a4b577a184f03e93ff9f4daa797ed6e38ed64bf6a1f0100000000000000008381611a4157611a406129dd565b5b0492506040810190505b6d04ee2d6d415b85acef81000000008310611a88576d04ee2d6d415b85acef81000000008381611a7e57611a7d6129dd565b5b0492506020810190505b662386f26fc100008310611ab757662386f26fc100008381611aad57611aac6129dd565b5b0492506010810190505b6305f5e1008310611ae0576305f5e1008381611ad657611ad56129dd565b5b0492506008810190505b6127108310611b05576127108381611afb57611afa6129dd565b5b0492506004810190505b60648310611b285760648381611b1e57611b1d6129dd565b5b0492506002810190505b600a8310611b37576001810190505b80915050919050565b5f604051905090565b5f5ffd5b5f5ffd5b5f7fffffffff0000000000000000000000000000000000000000000000000000000082169050919050565b611b8581611b51565b8114611b8f575f5ffd5b50565b5f81359050611ba081611b7c565b92915050565b5f60208284031215611bbb57611bba611b49565b5b5f611bc884828501611b92565b91505092915050565b5f8115159050919050565b611be581611bd1565b82525050565b5f602082019050611bfe5f830184611bdc565b92915050565b5f81519050919050565b5f82825260208201905092915050565b8281835e5f83830152505050565b5f601f19601f8301169050919050565b5f611c4682611c04565b611c508185611c0e565b9350611c60818560208601611c1e565b611c6981611c2c565b840191505092915050565b5f6020820190508181035f830152611c8c8184611c3c565b905092915050565b5f819050919050565b611ca681611c94565b8114611cb0575f5ffd5b50565b5f81359050611cc181611c9d565b92915050565b5f60208284031215611cdc57611cdb611b49565b5b5f611ce984828501611cb3565b91505092915050565b5f73ffffffffffffffffffffffffffffffffffffffff82169050919050565b5f611d1b82611cf2565b9050919050565b611d2b81611d11565b82525050565b5f602082019050611d445f830184611d22565b92915050565b611d5381611d11565b8114611d5d575f5ffd5b50565b5f81359050611d6e81611d4a565b92915050565b5f5f60408385031215611d8a57611d89611b49565b5b5f611d9785828601611d60565b9250506020611da885828601611cb3565b9150509250929050565b5f5f5f60608486031215611dc957611dc8611b49565b5b5f611dd686828701611d60565b9350506020611de786828701611d60565b9250506040611df886828701611cb3565b9150509250925092565b5f819050919050565b5f611e25611e20611e1b84611cf2565b611e02565b611cf2565b9050919050565b5f611e3682611e0b565b9050919050565b5f611e4782611e2c565b9050919050565b611e5781611e3d565b82525050565b5f602082019050611e705f830184611e4e565b92915050565b5f5ffd5b5f81905082602060020282011115611e9557611e94611e76565b5b92915050565b5f81905082604060020282011115611eb657611eb5611e76565b5b92915050565b5f5ffd5b5f5ffd5b7f4e487b71000000000000000000000000000000000000000000000000000000005f52604160045260245ffd5b611efa82611c2c565b810181811067ffffffffffffffff82111715611f1957611f18611ec4565b5b80604052505050565b5f611f2b611b40565b9050611f378282611ef1565b919050565b5f67ffffffffffffffff821115611f5657611f55611ec4565b5b611f5f82611c2c565b9050602081019050919050565b828183375f83830152505050565b5f611f8c611f8784611f3c565b611f22565b905082815260208101848484011115611fa857611fa7611ec0565b5b611fb3848285611f6c565b509392505050565b5f82601f830112611fcf57611fce611ebc565b5b8135611fdf848260208601611f7a565b91505092915050565b5f5f5f5f5f610140868803121561200257612001611b49565b5b5f61200f88828901611cb3565b955050602061202088828901611e7a565b945050606061203188828901611e9b565b93505060e061204288828901611e7a565b92505061012086013567ffffffffffffffff81111561206457612063611b4d565b5b61207088828901611fbb565b9150509295509295909350565b61208681611c94565b82525050565b5f60208201905061209f5f83018461207d565b92915050565b5f602082840312156120ba576120b9611b49565b5b5f6120c784828501611d60565b91505092915050565b6120d981611bd1565b81146120e3575f5ffd5b50565b5f813590506120f4816120d0565b92915050565b5f5f604083850312156121105761210f611b49565b5b5f61211d85828601611d60565b925050602061212e858286016120e6565b9150509250929050565b5f67ffffffffffffffff82111561215257612151611ec4565b5b61215b82611c2c565b9050602081019050919050565b5f61217a61217584612138565b611f22565b90508281526020810184848401111561219657612195611ec0565b5b6121a1848285611f6c565b509392505050565b5f82601f8301126121bd576121bc611ebc565b5b81356121cd848260208601612168565b91505092915050565b5f5f5f5f608085870312156121ee576121ed611b49565b5b5f6121fb87828801611d60565b945050602061220c87828801611d60565b935050604061221d87828801611cb3565b925050606085013567ffffffffffffffff81111561223e5761223d611b4d565b5b61224a878288016121a9565b91505092959194509250565b5f5f6040838503121561226c5761226b611b49565b5b5f61227985828601611d60565b925050602061228a85828601611d60565b9150509250929050565b7f4e487b71000000000000000000000000000000000000000000000000000000005f52602260045260245ffd5b5f60028204905060018216806122d857607f821691505b6020821081036122eb576122ea612294565b5b50919050565b5f6060820190506123045f830186611d22565b612311602083018561207d565b61231e6040830184611d22565b949350505050565b7f416c7265616479206d696e74656420666f72207468697320726f61646d6170005f82015250565b5f61235a601f83611c0e565b915061236582612326565b602082019050919050565b5f6020820190508181035f8301526123878161234e565b9050919050565b82818337505050565b6123a36040838361238e565b5050565b5f60029050919050565b5f81905092915050565b5f819050919050565b6123d06040838361238e565b5050565b5f6123df83836123c4565b60408301905092915050565b5f82905092915050565b5f604082019050919050565b61240a816123a7565b61241481846123b1565b925061241f826123bb565b805f5b838110156124575761243482846123eb565b61243e87826123d4565b9650612449836123f5565b925050600181019050612422565b505050505050565b5f610100820190506124735f830186612397565b6124806040830185612401565b61248d60c0830184612397565b949350505050565b5f815190506124a3816120d0565b92915050565b5f602082840312156124be576124bd611b49565b5b5f6124cb84828501612495565b91505092915050565b7f496e76616c6964205a4b2070726f6f66000000000000000000000000000000005f82015250565b5f612508601083611c0e565b9150612513826124d4565b602082019050919050565b5f6020820190508181035f830152612535816124fc565b9050919050565b7f4e487b71000000000000000000000000000000000000000000000000000000005f52601160045260245ffd5b5f61257382611c94565b91507fffffffffffffffffffffffffffffffffffffffffffffffffffffffffffffffff82036125a5576125a461253c565b5b600182019050919050565b7f496e76616c6964207665726966696572206164647265737300000000000000005f82015250565b5f6125e4601883611c0e565b91506125ef826125b0565b602082019050919050565b5f6020820190508181035f830152612611816125d8565b9050919050565b5f81905092915050565b5f61262c82611c04565b6126368185612618565b9350612646818560208601611c1e565b80840191505092915050565b5f61265d8285612622565b91506126698284612622565b91508190509392505050565b5f819050815f5260205f209050919050565b5f6020601f8301049050919050565b5f82821b905092915050565b5f600883026126d17fffffffffffffffffffffffffffffffffffffffffffffffffffffffffffffffff82612696565b6126db8683612696565b95508019841693508086168417925050509392505050565b5f61270d61270861270384611c94565b611e02565b611c94565b9050919050565b5f819050919050565b612726836126f3565b61273a61273282612714565b8484546126a2565b825550505050565b5f5f905090565b612751612742565b61275c81848461271d565b505050565b5b8181101561277f576127745f82612749565b600181019050612762565b5050565b601f8211156127c45761279581612675565b61279e84612687565b810160208510156127ad578190505b6127c16127b985612687565b830182612761565b50505b505050565b5f82821c905092915050565b5f6127e45f19846008026127c9565b1980831691505092915050565b5f6127fc83836127d5565b9150826002028217905092915050565b61281582611c04565b67ffffffffffffffff81111561282e5761282d611ec4565b5b61283882546122c1565b612843828285612783565b5f60209050601f831160018114612874575f8415612862578287015190505b61286c85826127f1565b8655506128d3565b601f19841661288286612675565b5f5b828110156128a957848901518255600182019150602085019450602081019050612884565b868310156128c657848901516128c2601f8916826127d5565b8355505b6001600288020188555050505b505050505050565b5f81519050919050565b5f82825260208201905092915050565b5f6128ff826128db565b61290981856128e5565b9350612919818560208601611c1e565b61292281611c2c565b840191505092915050565b5f6080820190506129405f830187611d22565b61294d6020830186611d22565b61295a604083018561207d565b818103606083015261296c81846128f5565b905095945050505050565b5f8151905061298581611b7c565b92915050565b5f602082840312156129a05761299f611b49565b5b5f6129ad84828501612977565b91505092915050565b5f6040820190506129c95f830185611d22565b6129d6602083018461207d565b9392505050565b7f4e487b71000000000000000000000000000000000000000000000000000000005f52601260045260245ffdfea2646970667358221220efc151ef17e98b2402fba804ce25767a66befed88e8aba85a6c617d2ea97f92e64736f6c634300081d0033","linkReferences":{}},"methodIdentifiers":{"approve(address,uint256)":"095ea7b3","balanceOf(address)":"70a08231","getApproved(uint256)":"081812fc","hasMinted(address,uint256)":"f8f1147d","isApprovedForAll(address,address)":"e985e9c5","mintWithProof(uint256,uint256[2],uint256[2][2],uint256[2],string)":"6f09cbed","name()":"06fdde03","ownerOf(uint256)":"6352211e","safeTransferFrom(address,address,uint256)":"42842e0e","safeTransferFrom(address,address,uint256,bytes)":"b88d4fde","setApprovalForAll(address,bool)":"a22cb465","supportsInterface(bytes4)":"01ffc9a7","symbol()":"95d89b41","tokenURI(uint256)":"c87b56dd","transferFrom(address,address,uint256)":"23b872dd","updateVerifier(address)":"97fc007c","verifier()":"2b7ac3f3"},"id":34}